:020000007E2858
:06000600000000000800EC
:10000C00063083120313FD00FD0B0A2800000800C4
:10001C0083120313AB01AD01AE011030AF000430FD
:10002C002E0203183A28F03088002F098316880016
:10003C00032003200F3083120805F0007008AC0079
:10004C007008031934282D08AB002C08031932282A
:10005C00AC0CAC13AB0A2B280430AE00AF0D2F1038
:0E006C000430AD07AE0A15282B08F00008007E
:0E007A008312031328088A002708820008005A
:10008800831603178C1C4A28000044288312031384
:10009800290803178D0003132A0803178C008316F9
:1000A8008C130C150B08F0008B1355308D00AA30FB
:1000B8008D008C14F01B62288B1363288B170C118E
:0200C80008002E
:1000CA000E207008A9000F300805F00003196F28E8
:0A00DA00062068282908F00008003D
:1000E4003D208A110A128000840AA70A0319A80A6B
:0800F400F003031D722808004F
:1000FC00053083120313A000A1011930A200A30143
:10010C001430A400A5018316850183128501831682
:10011C00870183128701A9012408AA00442010300A
:10012C0083120313A9002008AA0044202030831254
:10013C000313A9002208AA0044206D308312031374
:10014C0085002608031DAE2865207008A600A72888
:04015C00A728AF28F9
:04400E00F22F000786
:00000001FF
