:020000007E2858
:06000600000000000800EC
:10000C00063083120313FD00FD0B0A2800000800C4
:10001C0083120313C601C801C9011030CA00043091
:10002C00490203183A28F03088004A0983168800E0
:10003C00032003200F3083120805F0007008C7005E
:10004C007008031934284808C600470803193228D9
:10005C00C70CC713C60A2B280430C900CA0D4A1096
:0E006C000430C807C90A15284608F00008002D
:0E007A008312031341088A0040088200080028
:10008800831603178C1C4A28000044288312031384
:10009800440803178D000313450803178C008316C3
:1000A8008C130C150B08F0008B1355308D00AA30FB
:1000B8008D008C14F01B62288B1363288B170C118E
:0200C80008002E
:1000CA000E207008C4000F300805F00003196F28CD
:0A00DA00062068284408F000080022
:1000E4003D208A110A128000840AC00A0319C10A39
:0800F400F003031D722808004F
:1000FC00143083120313A000A1010530A200A30148
:10010C001930A400A501A601A701A801A901063078
:10011C00AA00AB015B30AC00AD014F30AE00AF01BB
:10012C006630B000B1016D30B200B3017D30B40067
:10013C00B5010730B600B7017F30B800B9016730A0
:10014C00BA00BB01BC01BD01BE01BF018316850114
:10015C00831285018316870183128701C40120084D
:10016C00C5004420103083120313C4002208C500BC
:10017C004420203083120313C4002408C5004420FB
:10018C006D308312031385004308031DD1286520AD
:10019C007008C300CA28C92900303D06031DD828A1
:1001AC0001303C06031D02293E08013EF1000030DF
:1001BC000318013E3F07F20000307206031DE828C9
:1001CC000A3071060319ED28BE0A0319BF0A013063
:1001DC003E02F3000030031C013E3F02F4007308A2
:1001EC00F0007408F100F00DF10D701070082A3E4B
:1001FC00840000088500312900303D06031D0829C4
:10020C0002303C06031D31292608013EF100003066
:10021C000318013E2707F20000307206031D18294F
:10022C000A30710603191D29A60A0319A70A013001
:10023C002602F3000030031C013E2702F400730871
:10024C00F0007408F100F00DF10D701070082A3EEA
:10025C00840000088700E12900303D06031D382981
:10026C0001303C06031D632901303E02F1000030D1
:10027C00031C013E3F02F20000307206031D4829A8
:10028C000030710603194E290130BE02031CBF0356
:10029C0001303E02F3000030031C013E3F02F4002B
:1002AC007308F0007408F100F00DF10D7010700877
:1002BC002A3E840000088500932900303D06031D6A
:1002CC00692902303C06031D932901302602F100F6
:1002DC000030031C013E2702F20000307206031DA1
:1002EC0079290030710603197F290130A602031CFD
:1002FC00A70301302602F3000030031C013E270245
:10030C00F4007308F0007408F100F00DF10D70109A
:10031C0070082A3E840000088700E1290030290675
:10032C00031D9A2901302806031DA0290130BC00A9
:10033C000030BD00E12900302906031DA72901303A
:10034C002806031DAD290230BC000030BD00E12998
:10035C00E1294208053A031DB7298501BE01BF01F9
:10036C00C8294208063A031DBF298701A601A70127
:10037C00C829BE01BF01A601A701A801A9018701D7
:10038C006D308500E1294308013A0319D22843084E
:10039C00023A031932294308053A031994294308F0
:1003AC00063A0319A1294308093A0319AE2943084F
:0E03BC000A3A0319AF294308C200CA28E429EF
:04400E00F22F000786
:00000001FF
