:020000008A284C
:06000600000000000800EC
:10000C00063083120313FD00FD0B0A2800000800C4
:0E001C008312031329088A00280882000800B6
:10002A0083120313AE01B001B1011030B2000430E3
:10003A00310203184128F0308800320983168800FB
:10004A00032003200F3083120805F0007008AF0068
:10005A00700803193B283008AE002F080319392805
:10006A00AF0CAF13AE0A32280430B100B20D321011
:0E007A000430B007B10A1C282E08F000080060
:100088000E208A110A128000840AA80A0319A90AF4
:08009800F003031D44280800D9
:1000A00015207008AC000F300805F00003195A281D
:0A00B000062053282C08F000080079
:1000BA00831203132C0803178D0083168C130C1458
:0800CA0083120C08F00008008D
:1000D200831603178C1C6F280000692883120313F0
:1000E2002C0803178D0003132D0803178C008316A9
:1000F2008C130C150B08F0008B1355308D00AA30B1
:100102008D008C14F01B87288B1388288B170C11F9
:020112000800E3
:1001140083120313A001A101A201A301A401A5015B
:10012400A601A70183168501831285018316870121
:1001340083128701AC011430AD00692010308312A2
:100144000313AC000430AD00692020308312031384
:10015400AC001930AD0069206D30831203138500A3
:100164002A08031DB92850207008AA00B2287B2A47
:1001740000302106031DC02801302006031DFB2882
:1001840000302306031DC828003022060319FB286B
:100194002208013EF10000300318013E2307F2005B
:1001A40000307206031DD8280A3071060319DD28B1
:1001B400A20A0319A30A01302202F3000030031C2F
:1001C400013E2302F4007308F0007408F100F00DFE
:1001D400F10D70109830F00702300318013EF1075A
:1001E4007008A8007108A9000E208A110A1285005F
:1001F4003B2900302106031D012902302006031D7E
:100204003B2900302506031D092900302406031963
:100214003B292408013EF10000300318013E250764
:10022400F20000307206031D19290A307106031901
:100234001E29A40A0319A50A01302402F300003080
:10024400031C013E2502F4007308F0007408F10059
:10025400F00DF10D70109830F00702300318013ED4
:10026400F1077008A8007108A9000E208A110A126B
:100274008700932A00302106031D422901302006FD
:10028400031D7E2900302706031D4A290130260656
:10029400031D7E2901302202F1000030031C013EBF
:1002A4002302F20000307206031D5A290030710641
:1002B400031960290130A202031CA30301302202A6
:1002C400F3000030031C013E2302F4007308F00025
:1002D4007408F100F00DF10D70109830F007023041
:1002E4000318013EF1077008A8007108A9000E2048
:1002F4008A110A128500BF2900302106031D8429B2
:1003040002302006031DBF2900302706031D8C2957
:1003140001302606031DBF2901302402F1000030FC
:10032400031C013E2502F20000307206031D9C29C5
:10033400003071060319A2290130A402031CA5038D
:1003440001302402F3000030031C013E2502F400B6
:100354007308F0007408F100F00DF10D701098307E
:10036400F00702300318013EF1077008A800710875
:10037400A9000E208A110A128700932A003027064A
:10038400031DC62901302606031DCC290130A00017
:100394000030A100932A00302706031DD329013021
:1003A4002606031DD9290230A0000030A100932A9B
:1003B4002B08053A031D0B2A00302706031DE429E8
:1003C40001302606031D0B2A1030AC005D20700896
:1003D4000313A200A30101302202F3000030031C26
:1003E400013E2302F4007308F0007408F100F00DDC
:1003F400F10D70109830F00702300318013EF10738
:100404007008A8007108A9000E208A110A1285003C
:10041400532A2B08063A031D3C2A00302706031DE5
:10042400152A01302606031D3C2A1030AC005D203D
:1004340070080313A400A50101302402F300003066
:10044400031C013E2502F4007308F0007408F10057
:10045400F00DF10D70109830F00702300318013ED2
:10046400F1077008A8007108A9000E208A110A1269
:100474008700532A00302706031D422A013026062E
:100484000319532A3430FC00F130FD00FD0B482AD7
:10049400FC0B482A0000000085010130A600003052
:1004A400A700932A2B08053A031D5E2A8501A201A1
:1004B400A301A001A1017A2A2B08063A031D682A88
:1004C4008701A401A501A001A1017A2A4130FC0001
:1004D400EE30FD00FD0B6C2AFC0B6C2A0000A2011F
:1004E400A301A401A501A601A70187016D30850020
:1004F400932A2A08013A0319BA282A08023A031946
:100504003C292A08053A0319C0292A08063A03197E
:10051400CD292A08093A0319DA292A080A3A0319BB
:0C052400542A2A08AB00AA01B228972A2A
:10053000063400345B3400344F3400346634003405
:100540006D3400347D340034073400347F3400349B
:0405500067340034D8
:04400E00F22F000786
:00000001FF
