:020000008A284C
:06000600000000000800EC
:10000C00063083120313FD00FD0B0A2800000800C4
:0E001C008312031341088A0040088200080086
:10002A0083120313C601C801C9011030CA00043083
:10003A00490203184128F03088004A0983168800CB
:10004A00032003200F3083120805F0007008C70050
:10005A00700803193B284808C600470803193928BD
:10006A00C70CC713C60A32280430C900CA0D4A1081
:0E007A000430C807C90A1C284608F000080018
:100088000E208A110A128000840AC00A0319C10AC4
:08009800F003031D44280800D9
:1000A00015207008C4000F300805F00003195A2805
:0A00B000062053284408F000080061
:1000BA0083120313440803178D0083168C130C1440
:0800CA0083120C08F00008008D
:1000D200831603178C1C6F280000692883120313F0
:1000E200440803178D000313450803178C00831679
:1000F2008C130C150B08F0008B1355308D00AA30B1
:100102008D008C14F01B87288B1388288B170C11F9
:020112000800E3
:10011400143083120313A000A1010530A200A3012F
:100124001930A400A5010630A600A7015B30A80081
:10013400A9014F30AA00AB016630AC00AD016D30AF
:10014400AE00AF017D30B000B1010730B200B301A1
:100154007F30B400B5016730B600B701B801B9010A
:10016400BA01BB01BC01BD01BE01BF0183168501FB
:10017400831285018316870183128701C401200835
:10018400C5006920103083120313C4002208C5007F
:100194006920203083120313C4002408C500692099
:1001A4006D308312031385004308031DDD2850209E
:1001B4007008C300D628392A00303D06031DE42800
:1001C40001303C06031D162900303F06031DEC28B0
:1001D40001303E06031D16293A08013EF1000030A5
:1001E4000318013E3B07F20000307206031DFC2891
:1001F4000A30710603190129BA0A0319BB0A01302E
:100204003A02F3000030031C013E3B02F400730881
:10021400F0007408F100F00DF10D70107008263E26
:100224008400000885004D2900303D06031D1C296B
:1002340002303C06031D4D2900303F06031D2429CE
:1002440001303E06031D4D293808013EF1000030FF
:100254000318013E3907F20000307206031D3429E9
:100264000A30710603193929B80A0319B90A013089
:100274003802F3000030031C013E3902F400730815
:10028400F0007408F100F00DF10D70107008263EB6
:10029400840000088700512A00303D06031D5429BC
:1002A40001303C06031D872900303F06031D5C29ED
:1002B40001303E06031D872901303A02F100003067
:1002C400031C013E3B02F20000307206031D6C2940
:1002D40000307106031972290130BA02031CBB03F2
:1002E40001303A02F3000030031C013E3B02F400EB
:1002F4007308F0007408F100F00DF10D701070082F
:10030400263E840000088500BF2900303D06031DF9
:100314008D2902303C06031DBF2900303F06031D12
:10032400952901303E06031DBF2901303802F10032
:100334000030031C013E3902F20000307206031D36
:10034400A529003071060319AB290130B802031C3A
:10035400B90301303802F3000030031C013E3902B6
:10036400F4007308F0007408F100F00DF10D701042
:100374007008263E840000088700512A00303F069A
:10038400031DC62901303E06031DCC290130BC00E3
:100394000030BD00512A00303F06031DD32901302F
:1003A4003E06031DD9290230BC000030BD00512A8D
:1003B4004208053A031DFA291030C4005D20700874
:1003C4000313BA00BB0101303A02F3000030031CEE
:1003D400013E3B02F4007308F0007408F100F00DD4
:1003E400F10D70107008263E8400000885001E2A56
:1003F4004208063A031D1A2A1030C4005D20700812
:100404000313B800B90101303802F3000030031CB3
:10041400013E3902F4007308F0007408F100F00D95
:10042400F10D70107008263E8400000887001E2A13
:100434000130BE000030BF00512A4208053A031DB6
:10044400272A8501BA01BB01382A4208063A031D4E
:100454002F2A8701B801B901382ABA01BB01B801B2
:10046400B901BE01BF0187016D308500512A4308DF
:10047400013A0319DE284308023A03194E294308B6
:10048400053A0319C0294308063A0319CD2943083C
:10049400093A0319DA2943080A3A03191F2A4308B7
:0804A400C200C301D628552A4D
:04400E00F22F000786
:00000001FF
