:020000007E2858
:06000600000000000800EC
:10000C00063083120313FD00FD0B0A2800000800C4
:10001C0083120313B201B401B5011030B6000430E1
:10002C00350203183A28F030880036098316880008
:10003C00032003200F3083120805F0007008B30072
:10004C007008031934283408B20033080319322815
:10005C00B30CB313B20A2B280430B500B60D36100E
:0E006C000430B407B50A15283208F000080069
:0E007A00831203132D088A002C088200080050
:10008800831603178C1C4A28000044288312031384
:10009800300803178D000313310803178C008316EB
:1000A8008C130C150B08F0008B1355308D00AA30FB
:1000B8008D008C14F01B62288B1363288B170C118E
:0200C80008002E
:1000CA000E207008B0000F300805F00003196F28E1
:0A00DA00062068283008F000080036
:1000E4003D208A110A128000840AAC0A0319AD0A61
:0800F400F003031D722808004F
:1000FC0083120313A001A101A201A301A401A50174
:10010C001430A600A7010530A800A9011930AA00D7
:10011C00AB01831685018312850183168701831237
:10012C008701B0012608B10044201030831203135C
:10013C00B0002808B1004420203083120313B00013
:10014C002A08B10044206D308312031385002F0858
:10015C00031DB42865207008AF00AD28D428EC2806
:10016C00EC28EC28EC28EC282E08053A031DC228B4
:10017C008501A201A301D3282E08063A031DCA2823
:10018C008701A401A501D328A201A301A401A50103
:10019C00A001A10187016D308500EC282F08013AE0
:1001AC000319B5282F08023A0319B6282F08053A67
:1001BC000319B7282F08063A0319B8282F08093A4B
:1001CC000319B9282F080A3A0319BA282F08AE00C8
:0401DC00AD28EF2833
:04400E00F22F000786
:00000001FF
