:020000007E2858
:06000600000000000800EC
:10000C00063083120313FD00FD0B0A2800000800C4
:10001C0083120313C601C801C9011030CA00043091
:10002C00490203183A28F03088004A0983168800E0
:10003C00032003200F3083120805F0007008C7005E
:10004C007008031934284808C600470803193228D9
:10005C00C70CC713C60A2B280430C900CA0D4A1096
:0E006C000430C807C90A15284608F00008002D
:0E007A008312031341088A0040088200080028
:10008800831603178C1C4A28000044288312031384
:10009800440803178D000313450803178C008316C3
:1000A8008C130C150B08F0008B1355308D00AA30FB
:1000B8008D008C14F01B62288B1363288B170C118E
:0200C80008002E
:1000CA000E207008C4000F300805F00003196F28CD
:0A00DA00062068284408F000080022
:1000E4003D208A110A128000840AC00A0319C10A39
:0800F400F003031D722808004F
:1000FC00143083120313A000A1010530A200A30148
:10010C001930A400A5010630A600A7015B30A80099
:10011C00A9014F30AA00AB016630AC00AD016D30C7
:10012C00AE00AF017D30B000B1010730B200B301B9
:10013C007F30B400B5016730B600B701B801B90122
:10014C00BA01BB01BC01BD01BE01BF018316850113
:10015C00831285018316870183128701C40120084D
:10016C00C5004420103083120313C4002208C500BC
:10017C004420203083120313C4002408C5004420FB
:10018C006D308312031385004308031DD1286520AD
:10019C007008C300CA28E92900303D06031DD82881
:1001AC0001303C06031D0A2900303F06031DE028E0
:1001BC0001303E06031D0A293A08013EF1000030C9
:1001CC000318013E3B07F20000307206031DF028B5
:1001DC000A3071060319F528BA0A0319BB0A013053
:1001EC003A02F3000030031C013E3B02F40073089A
:1001FC00F0007408F100F00DF10D70107008263E3F
:10020C00840000088500412900303D06031D10299B
:10021C0002303C06031D412900303F06031D1829FE
:10022C0001303E06031D41293808013EF100003023
:10023C000318013E3907F20000307206031D28290D
:10024C000A30710603192D29B80A0319B90A0130AD
:10025C003802F3000030031C013E3902F40073082D
:10026C00F0007408F100F00DF10D70107008263ECE
:10027C00840000088700012A00303D06031D482930
:10028C0001303C06031D7B2900303F06031D50291D
:10029C0001303E06031D7B2901303A02F10000308B
:1002AC00031C013E3B02F20000307206031D602964
:1002BC0000307106031966290130BA02031CBB0316
:1002CC0001303A02F3000030031C013E3B02F40003
:1002DC007308F0007408F100F00DF10D7010700847
:1002EC00263E840000088500B32900303D06031D1E
:1002FC00812902303C06031DB32900303F06031D43
:10030C00892901303E06031DB32901303802F10062
:10031C000030031C013E3902F20000307206031D4E
:10032C0099290030710603199F290130B802031C6A
:10033C00B90301303802F3000030031C013E3902CE
:10034C00F4007308F0007408F100F00DF10D70105A
:10035C007008263E840000088700012A00303F0602
:10036C00031DBA2901303E06031DC0290130BC0013
:10037C000030BD00012A00303F06031DC7290130A3
:10038C003E06031DCD290230BC000030BD00012A01
:10039C00012A4208053A031DD7298501BA01BB0180
:1003AC00E8294208063A031DDF298701B801B90183
:1003BC00E829BA01BB01B801B901BE01BF0187012F
:1003CC006D308500012A4308013A0319D2284308ED
:1003DC00023A031942294308053A0319B429430880
:1003EC00063A0319C1294308093A0319CE294308CF
:0E03FC000A3A0319CF294308C200CA28042A6E
:04400E00F22F000786
:00000001FF
