:020000008A284C
:06000600000000000800EC
:10000C00063083120313FD00FD0B0A2800000800C4
:0E001C00831203133B088A003A088200080092
:10002A0083120313C001C201C3011030C40004309B
:10003A00430203184128F0308800440983168800D7
:10004A00032003200F3083120805F0007008C10056
:10005A00700803193B284208C000410803193928CF
:10006A00C10CC113C00A32280430C300C40D4410A5
:0E007A000430C207C30A1C284008F00008002A
:100088000E208A110A128000840ABA0A0319BB0AD0
:08009800F003031D44280800D9
:1000A00015207008BE000F300805F00003195A280B
:0A00B000062053283E08F000080067
:1000BA00831203133E0803178D0083168C130C1446
:0800CA0083120C08F00008008D
:1000D200831603178C1C6F280000692883120313F0
:1000E2003E0803178D0003133F0803178C00831685
:1000F2008C130C150B08F0008B1355308D00AA30B1
:100102008D008C14F01B87288B1388288B170C11F9
:020112000800E3
:1001140083120313A001A101A201A301A401A5015B
:100124000630A600A7015B30A800A9014F30AA0041
:10013400AB016630AC00AD016D30AE00AF017D3077
:10014400B000B1010730B200B3017F30B400B50193
:100154006730B600B701B801B9018316850183126F
:1001640085018316870183128701BE011430BF0005
:100174006920103083120313BE000430BF006920CD
:10018400203083120313BE001930BF0069206D3084
:100194008312031385003C08031DD42850207008E3
:1001A400BC00CD28582A00302106031DDB2801306D
:1001B4002006031D0D2900302506031DE328003009
:1001C400240603190D292408013EF1000030031808
:1001D400013E2507F20000307206031DF3280A30A1
:1001E40071060319F828A40A0319A50A0130240288
:1001F400F3000030031C013E2502F4007308F000F4
:100204007408F100F00DF10D70107008263E8400A2
:1002140000088500442900302106031D13290230FB
:100224002006031D442900303906031D1B29003014
:100234003806031944293808013EF1000030031838
:10024400013E3907F20000307206031D2B290A30E3
:10025400710603193029B80A0319B90A01303802A2
:10026400F3000030031C013E3902F4007308F0006F
:100274007408F100F00DF10D70107008263E840032
:1002840000088700702A00302106031D4B29013025
:100294002006031D7E2900302306031D5329013047
:1002A4002206031D7E2901302402F1000030031CC4
:1002B400013E2502F20000307206031D632900305E
:1002C4007106031969290130A402031CA503013036
:1002D4002402F3000030031C013E2502F4007308DD
:1002E400F0007408F100F00DF10D70107008263E56
:1002F400840000088500B62900302106031D8429E6
:1003040002302006031DB62900302306031D8C2964
:1003140001302206031DB62901303802F1000030F5
:10032400031C013E3902F20000307206031D9C29B1
:10033400003071060319A2290130B802031CB90365
:1003440001303802F3000030031C013E3902F4008E
:100354007308F0007408F100F00DF10D70107008CE
:10036400263E840000088700702A00302306031DFF
:10037400BD2901302206031DC3290130A00000302D
:10038400A100702A00302306031DCA290130220669
:10039400031DD0290230A0000030A100702A3D08BE
:1003A400053A031DF92900302306031DDB2901301A
:1003B4002206031DF9291030BE005D2070080313C6
:1003C400A400A50101302402F3000030031C013E07
:1003D4002502F4007308F0007408F100F00DF10D2B
:1003E40070107008263E840000088500302A3D08FD
:1003F400063A031D212A00302306031D032A013077
:100404002206031D212A1030BE005D20700803134C
:10041400B800B90101303802F3000030031C013E7A
:100424003902F4007308F0007408F100F00DF10DC6
:1004340070107008263E840000088700302A34308B
:10044400FC00F130FD00FD0B252AFC0B252A0000E1
:10045400000085010130A2000030A300702A3D088D
:10046400053A031D3B2A8501A401A501A001A101B0
:10047400572A3D08063A031D452A8701B801B901E8
:10048400A001A101572A4130FC00EE30FD00FD0B14
:10049400492AFC0B492A0000A401A501B801B901AD
:1004A400A201A30187016D308500702A3C08013A3E
:1004B4000319D5283C08023A031945293C08053A92
:1004C4000319B7293C08063A0319C4293C08093A18
:1004D4000319D1293C080A3A0319312A3C08BD0002
:0604E400BC01CD28742AC2
:04400E00F22F000786
:00000001FF
