:020000007E2858
:06000600000000000800EC
:10000C00063083120313FD00FD0B0A2800000800C4
:10001C0083120313AE01B001B1011030B2000430F1
:10002C00310203183A28F030880032098316880010
:10003C00032003200F3083120805F0007008AF0076
:10004C007008031934283008AE002F080319322821
:10005C00AF0CAF13AE0A2B280430B100B20D321026
:0E006C000430B007B10A15282E08F000080075
:0E007A008312031329088A0028088200080058
:10008800831603178C1C4A28000044288312031384
:100098002C0803178D0003132D0803178C008316F3
:1000A8008C130C150B08F0008B1355308D00AA30FB
:1000B8008D008C14F01B62288B1363288B170C118E
:0200C80008002E
:1000CA000E207008AC000F300805F00003196F28E5
:0A00DA00062068282C08F00008003A
:1000E4003D208A110A128000840AA80A0319A90A69
:0800F400F003031D722808004F
:1000FC0083120313A001A1011430A200A301053047
:10010C00A400A5011930A600A7018316850183124E
:10011C0085018316870183128701AC012208AD008B
:10012C004420103083120313AC002408AD0044208B
:10013C00203083120313AC002608AD0044206D3030
:10014C008312031385002A08031DB028652070084C
:10015C00AA00A928C828E028E028E028E028E02800
:10016C002B08053A031DBC288501C7282B08063A25
:10017C00031DC2288701C728A001A10187016D308A
:10018C008500E0282A08013A0319B1282A08023A06
:10019C000319B2282A08053A0319B3282A08063A83
:1001AC000319B4282A08093A0319B5282A080A3A67
:0C01BC000319B6282A08AB00A928E32884
:04400E00F22F000786
:00000001FF
