:020000007E2858
:06000600000000000800EC
:10000C00063083120313FD00FD0B0A2800000800C4
:10001C0083120313AC01AE01AF011030B0000430F9
:10002C002F0203183A28F030880030098316880014
:10003C00032003200F3083120805F0007008AD0078
:10004C007008031934282E08AC002D080319322827
:10005C00AD0CAD13AC0A2B280430AF00B00D301032
:0E006C000430AE07AF0A15282C08F00008007B
:0E007A008312031329088A0028088200080058
:10008800831603178C1C4A28000044288312031384
:100098002A0803178D0003132B0803178C008316F7
:1000A8008C130C150B08F0008B1355308D00AA30FB
:1000B8008D008C14F01B62288B1363288B170C118E
:0200C80008002E
:1000CA000E207008AA000F300805F00003196F28E7
:0A00DA00062068282A08F00008003C
:1000E4003D208A110A128000840AA80A0319A90A69
:0800F400F003031D722808004F
:1000FC00193083120313A000A1011430A200A30134
:10010C000530A400A5018316850183128501831691
:10011C00870183128701AA012208AB00442010300A
:10012C0083120313AA002408AB004420203083124E
:10013C000313AA002008AB0044206D308312031374
:10014C0085002608031DAE2865207008A600A72888
:10015C00B528CD28CD28CD28CD28CD28CD282608CA
:10016C00013A0319AF282608023A0319B0282608C9
:10017C00053A0319B1282608063A0319B2282608AD
:10018C00093A0319B32826080A3A0319B428260891
:06019C00A700A728D028EF
:04400E00F22F000786
:00000001FF
