:0200000037289F
:0E0006008312031327088A00260882000800D0
:1000140003208A110A128000840AA60A0319A70A77
:08002400F003031D0A28080087
:10002C00831603178C1C1C2800001628831203133C
:10003C00280803178D000313290803178C00831657
:10004C008C130C150B08F0008B1355308D00AA3057
:10005C008D008C14F01B34288B1335288B170C1146
:02006C0008008A
:10006E00143083120313A000A1010530A200A301D6
:10007E001930A400A501831685018312850183160C
:10008E00870183128701A8012008A90016201030CD
:10009E0083120313A8002208A90016202030831211
:0C00AE000313A8002408A90016205C28F9
:04400E00F22F000786
:00000001FF
